:1000000033C000004CC000004AC0000048C00000DF
:1000100046C0000044C0000042C0000040C00000D4
:100020003EC000003CC000003AC0000038C00000E4
:1000300036C000001CC6000032C0000030C0000006
:1000400039C600002CC000002AC0000028C00000F3
:1000500026C0000024C0000022C0000020C0000014
:100060001EC000001CC0000011241FBECFEFD8E04E
:10007000DEBFCDBF11E0A0E0B1E0EEE8FDE002C0E0
:1000800005900D92A630B107D9F721E0A6E0B1E0C6
:1000900001C01D92AF34B207E1F71FD676C6B0CFCC
:1000A00082E080934E0180914E018111FCCF089532
:1000B00020ED37E091E090934E0180914E01811147
:1000C000FCCF21503109B9F708955C9A289A089518
:1000D0008EED91E090930D0180930C0108958FEFC8
:1000E0008EBD0DB407FEFDCF8EB508958EBD0DB447
:1000F00007FEFDCF8EB508955F9A80914901882350
:1001000009F466C080913E01811163C08FEF8EBDFE
:100110000DB407FEFDCF8EB58FEF8EBD0DB407FE7B
:10012000FDCF8EB5805890E0909389008093880031
:100130008FEF8EBD0DB407FEFDCF8EB58FEF8EBD58
:100140000DB407FEFDCF8EB5805890E090938B00E4
:1001500080938A0080913D01815009F0B9C080E808
:1001600080933D018FEF8EBD0DB407FEFDCF8EB5A0
:100170008FEF8EBD0DB407FEFDCF8EB580914A0185
:1001800090914B01A0914C01B0914D010197A109B3
:10019000B10980934A0190934B01A0934C01B09315
:1001A0004D019FEF9EBD0DB407FEFDCF8EB58E3F76
:1001B000C9F780914A0190914B01A0914C01B091F7
:1001C0004D01892B8A2B8B2B11F4109249015F98DA
:1001D0000895813079F0823031F18FEF8EBD0DB40A
:1001E00007FEFDCF8EB520913F0130914001215097
:1001F000310913C08FEF8EBD0DB407FEFDCF8EB554
:100200008FEF8EBD0DB407FEFDCF8EB580582091C7
:100210003F01309140012250310930934001209339
:100220003F01282F16C08FEF8EBD0DB407FEFDCF06
:100230008EB59FEF9EBD0DB407FEFDCF2EB540914C
:100240003F01509140014250510950934001409369
:100250003F0190E0909389008093880030E03093D4
:100260008B0020938A0080913F0190914001892B5F
:1002700009F09FCF80E092E09093400180933F018E
:100280008FEF8EBD0DB407FEFDCF8EB58FEF8EBD07
:100290000DB407FEFDCF8EB580914A0190914B01C0
:1002A000A0914C01B0914D010197A109B109809332
:1002B0004A0190934B01A0934C01B0934D019FEFE5
:1002C0009EBD0DB407FEFDCF8EB58E3FC9F771CF31
:1002D00080933D016ECF1F93CF93DF93C0910A01AE
:1002E000D0910B01209719F4FADE8E3FE9F7F7DE83
:1002F000182F2196C11582E0D80749F0D0930B0141
:10030000C0930A01812FDF91CF911F910895109220
:100310000B0110920A018091080190910901019648
:100320009093090180930801DADED9DEEBCF0F93B9
:100330001F93CF93DF938C01D0E0C0E0CCDF2196F8
:100340000C171D07D9F7DF91CF911F910F910895D9
:10035000CF92DF92EF92FF920F931F93CF93DF9391
:10036000D82FF42EE52ED62EC72E8901C5E9882375
:1003700021F0CFEF883009F4C7E88FEFB7DE80E4D3
:100380008D0FB4DE8C2DB2DE8D2DB0DE8E2DAEDE67
:100390008F2DACDE8C2FAADECAE0D0E0A0DEF80103
:1003A000808387FF02C02197C9F7DF91CF911F910A
:1003B0000F91FF90EF90DF90CF9008959091C00043
:1003C00095FFFCCF8093C6000895CF93C82F8A3045
:1003D00011F48DE0FADFE0910601F091070130970A
:1003E00049F0CF0101969093070180930601C083E5
:1003F000CF910895E0910C01F0910D013097C1F378
:100400008C2FCF9109945C98289808950F931F938F
:10041000CF93DF931F92CDB7DEB71982F4DF04E0EC
:1004200010E09E012F5F3F4F40E050E0BA018CE0AA
:100430008FDF01501109A9F748DE0F90DF91CF91AE
:100440001F910F910895CF92DF92EF92FF92CF9379
:10045000DF931F92CDB7DEB76B017C011982D3DF2A
:1004600080910E01813039F489E0CC0CDD1CEE1C4A
:10047000FF1C8A95D1F79E012F5F3F4FB701A60160
:1004800082E166DF10920B0110920A0110920901BD
:10049000109208010F90DF91CF91FF90EF90DF90C5
:1004A000CF900895CF92DF92EF92FF920F931F9318
:1004B000CF93DF936C0160911201709113018091D1
:1004C000140190911501BFDFD0E0C0E08BE3E82E6E
:1004D00081E0F82E0BE111E0FEDEF80181938F013F
:1004E000EE16FF06C9F7CC15DD0561F0A0968091E8
:1004F0001A018111EFCF80910F0190911001C8175F
:10050000D90740F383DFDF91CF911F910F91FF90C7
:10051000EF90DF90CF90D9CDCF93DF93CDB7DEB7FB
:10052000AA970FB6F894DEBF0FBECDBF8FEF85B987
:1005300088B98BB99FEE94B98AB95E9884E085BD7D
:10054000A89A81E080936E0090EC96BD1092C50051
:1005500099E19093C40098E19093C10026E0209324
:10056000C20020E52CBD8DBD22EA2093800090932F
:1005700081001092850010928400B09880936F00E3
:10058000789419828CB581608CBD8CB582608CBDED
:1005900087DD9BDD0AE010E08FEFA8DD0150110937
:1005A000D9F704E610E08981811111C079DD2BDFD4
:1005B00077DD9E012F5F3F4F40E050E0BA0180E0C1
:1005C000C7DE83DD0150110971F772DDDACF1BDF61
:1005D0009E012F5F3F4F4AEA51E060E070E088E003
:1005E000B7DE898182FFB3C081E080930E010BDF0B
:1005F0006CDD60E070E0CB0126DF86EC91E097DEF9
:100600009E012F5F3F4F69018E010B5F1F4F7901E4
:1006100062DED7018D937D010A171B07C9F7898018
:100620009A80AB80BC80F2DE50DDC501B4010BDFE7
:10063000AA24A394B12CAC0EBD1EB0E2AB0EB11C2B
:100640008E010F5F1F4F47DEF80181938F01AE16B9
:10065000BF06C9F78C859D8590931701809316017D
:100660008E8580931101AF84B88899880A891B8987
:1006700010931901009318012F89388D50E040E044
:100680004D8C5E8C6F8C78A021153105410551058C
:1006900091F481E080931A011EDE1DDE1CDE1BDE5C
:1006A0001ADED6018D936D01EA16FB06C9F7298182
:1006B0003A814B815C814A0C5B1C611C711CA92D29
:1006C000B0E04AD3460E571E681E791E40921201B2
:1006D00050921301609214017092150125E0000FF1
:1006E000111F2A95E1F71093100100930F018EDE80
:1006F000ECDC55245394B1E0B9A3612C712C00E0DB
:1007000080E0E1E0EAA3312C212C44244394FAE078
:10071000F0934E0190914E01992309F467C04091E6
:100720004A0150914B0160914C0170914D01452B54
:10073000462B472B09F45AC067140CF055C05E9A3B
:1007400063949DE7C92E6C10E5CF612CE3CF04E0E4
:1007500010E0C5DC898301501109D9F7B6DC898125
:100760008A3A09F03FC04FDE9E012F5F3F4F40E0C5
:1007700050E0BA0187E3ECDD9E012F5F3F4F40E080
:1007800050E060E070E489E2E3DD89818111ECCF23
:100790009E012F5F3F4F40E050E0BA018AE3D8DD71
:1007A0009EDC86FF1BC010920E0199DC898397DCCA
:1007B000898395DC89839E012F5F3F4F40E052E0A3
:1007C00060E070E080E1C4DD80DC8CB590E08E7F7D
:1007D0008CBD8CB590E08D7F8CBD0BCF81E080937C
:1007E0000E01E3CF72DCF1CE5E98AACF9091C000EB
:1007F00097FF09C09091C6009E36B1F030F49B314E
:1008000041F0903289F0102F11C0903711F09337DA
:10081000D1F70023D9F190918100916090938100EC
:100820004092490110E002C0102F81E040914A013E
:1008300050914B0160914C0170914D01452B462B1D
:10084000472B19F0882309F4AFC110924901DEDD6E
:100850003CDC80913B0190913C01009729F080960F
:1008600090933C0180933B01E0903B01F0903C0170
:10087000C70118DE80911B01853E61F420E2E20E83
:10088000F11CF0923C01E0923B01EECF1092490145
:1008900011E0CCCF811105C010923C0110923B01B8
:1008A000E3CF9EEB980F933188F4909126019F70CF
:1008B0009F3061F4805430E2839FC00111248E0D7B
:1008C0009F1D90933C0180933B01ECDD80912301BF
:1008D000873561F480912401813441F480912501B0
:1008E000863521F480912601803229F080913B01E8
:1008F00090913C01B4CFEBE1F1E0CE0101967C0197
:10090000DC0181918D9383E2C82E81E0D82ECE1632
:10091000DF06B9F77EE2D72ED98627E52A8731E4AC
:100920003B8786E58C871D868AE04FDDD7018D9158
:100930007D018111FACF80911A01882309F469C1E0
:1009400080912F0190E0B0E0A0E0DC01992788279A
:100950002091300130E050E040E0522F442733270F
:1009600022276C017D01C20ED31EE41EF51ECBA210
:10097000DCA2EDA2FEA28091360190E0B0E0A0E002
:10098000BA2FA92F982F88272091350130E050E009
:1009900040E022503109410951096C017D01C20E2C
:1009A000D31EE41EF51ECFA2D8A6E9A6FAA6C090D3
:1009B0003801D12CF12CE12CFE2CED2CDC2CCC249C
:1009C0008091390190E0B0E0A0E0DC019927882710
:1009D0008C0D9D1DAE1DBF1D209137016C017D0149
:1009E000C20ED11CE11CF11C80913A0190E0B0E0F4
:1009F000A0E0B82FAA2799278827C80ED91EEA1E7B
:100A0000FB1EC0924101D0924201E0924301F0925C
:100A10004401209116013091170150E040E06091AF
:100A200018017091190190E080E0E5E0660F771FF2
:100A3000881F991FEA95D1F749015A01A1E08A1A46
:100A40009108A108B108680D791D8A1D9B1D62D10E
:100A50008090120190901301A0901401B0901501A4
:100A6000820E931EA41EB51E2FA138A549A55AA516
:100A70008BA19CA1ADA1BEA1280F391F4A1F5B1FEE
:100A8000A0911101B0E068D1680D791D8A1D9B1DF0
:100A9000609345017093460180934701909348010C
:100AA000D2DC90E3C91A95E7D90AE108F108F9E028
:100AB000F694E794D794C794FA95D1F7C0924A0177
:100AC000D0924B01E0924C01F0924D0186E190E012
:100AD0002EDC01DCA82E80930501FDDBFCDBB82EAB
:100AE000FADBF82EF8DBC82EF6DB4F2D50E070E075
:100AF00060E0762F652F542F4427D12CF12CE12C68
:100B00007601DD24CC244C0D5D1D6E1D7F1D6A0118
:100B10007B01CB0CD11CE11CF11C90E0B0E0A0E00B
:100B2000B82FAA2799278827C80ED91EEA1EFB1EB0
:100B3000C0920101D0920201E0920301F0920401FF
:100B400086E090E0F4DBC7DBB82E8093000189E0FB
:100B500090E0EDDBC701B60196958795779567958F
:100B60007C5D8B409F4FA7019601D4D02150310965
:100B70003093870020938600A4EDB1E0B09340014C
:100B8000A0933F01B2E0AB124CC0E0E1BE1246C000
:100B900010923E01F5E7F0933D0180918100816064
:100BA0008093810040924901750C8DE7E82EE7148F
:100BB0000CF043C059A0519420914901211141C02A
:100BC00033E039A339B191E0832F847032FF90E094
:100BD000CAA09C15C9F18823C9F13BE02316310452
:100BE0002CF081E0A2E82A1631040CF080E0312CD0
:100BF000212C211135C0882399F1809181008160D9
:100C0000809381004092490110E080E0012F9AA377
:100C10007ECD1BA21CA21DA21EA2ADCEA0923E01A3
:100C2000BCCF20E1C22EBC1003C040923E01B5CF24
:100C300093E0D92ED0923E01B0CF7110BDCF59A014
:100C4000BBCF81E089A3BECF811103C0BFEF2B1AB8
:100C50003B0A80E0E9E72E1631045CF211E080E007
:100C60001017A1F2112391F210924901CFCF1F92D8
:100C70000F920FB60F9211242F933F934F935F93D0
:100C80006F937F938F939F93AF93BF93EF93FF9354
:100C900033DAFF91EF91BF91AF919F918F917F9147
:100CA0006F915F914F913F912F910F900FBE0F90D9
:100CB0001F9018951F920F920FB60F9211248F93C9
:100CC00080EC86BD80914E01815080934E018F91C2
:100CD0000F900FBE0F901F901895CF93DF9300D009
:100CE00000D0CDB7DEB788E690E09A838983E981AA
:100CF000FA8109958CE892E09C838B83EB81FC81DF
:100D0000099590E080E00F900F900F900F90DF9189
:100D1000CF910895A1E21A2EAA1BBB1BFD010DC0A5
:100D2000AA1FBB1FEE1FFF1FA217B307E407F5079B
:100D300020F0A21BB30BE40BF50B661F771F881F77
:100D4000991F1A9469F760957095809590959B010D
:100D5000AC01BD01CF01089509D0A59F900DB49FAE
:100D6000900DA49F800D911D11240895A29FB001A4
:100D7000B39FC001A39F700D811D1124911DB29FCF
:0E0D8000700D811D1124911D0895F894FFCF70
:060D8E001044AC0000025D
:00000001FF
